:030000000203C731
:0C03C700787FE4F6D8FD75817202040E08
:100026004F4B00496E697420554152542E2E2E00B6
:10003600496E697420544333352E2E2E00496E695D
:1000460074204D512D392E2E2E004761732D446597
:10005600746563743A004E6F726D616C2020203CAB
:1000660031303070706D005761726E696E67203E78
:100076003D31303070706D004D616B652043616CB1
:100086006C696E672E2E2E00415444313338393850
:100096003130363431303B0D0A004154410D0A00EF
:1000A60053656E64204D6573736167652E2E2E0051
:1000B60041542B434D47463D310D0A0041542B43D5
:1000C6004D47533D223133383938313036343130AB
:1000D600220D0A005761726E696E672120476173AF
:1000E600206C65616B616765212121000D0A004462
:1000F6006574656374205761726E696E67212100AD
:1001060020476173204C65616B6167652121210081
:10011600415445300D0A0041542B435245473F0D8B
:100126000A0041542B434D47533D32330D0A0041DB
:10013600542B434E4D493D322C310D0A0041542B70
:10014600434D47463D300D0A0041542B434D47521F
:100156003D310D0A0041542B434D47443D310D0AB4
:100166000041542B434D47533D223138363034300D
:100176003432313339220D0A0030383931363833CA
:10018600313038323030343035463031313030303D
:1001960044393136383831303638393432333746E7
:1001A6003430303038303030383632313136323122
:0A01B6003035323946344538360042
:0306530001720031
:070575007BFF1205DE7F325F
:10057C00AD071FED600FE4FEEEC394FA50F20000DD
:05058C0000000E80F3E9
:010591002247
:1005AC00759850438920438780758DFA758BFA4373
:0905BC00A890D28ED299D2AC2293
:03002300020003D5
:10000300C0E0C0D075D000C00030980B74212572B9
:0E001300F8A699C2980572D000D0D0D0E03285
:10060E00E4F57274212572F8E4F60572E572B451C0
:05061E00F2E4F5722278
:08064B008F993099FDC299223C
:1005DE001205C5FF601112064B7F0212057C7401D5
:0805EE0029F9E43AFA80E92240
:10051100AB07AA06EF42A07F1412057CEBF452A0B0
:100521007F1412057CEB42A07F1412057CEBF45280
:02053100A02206
:10062300C2A5D2A6D2A700000000E580339200C283
:03063300A7A2007B
:0106360022A1
:0505330012057C7F01B0
:1005380012062340FBC2A5C2A6C2A700008F8000F6
:0C054800000000D2A700000000C2A722A3
:1005920012062340FBD2A5C2A6C2A78F800000008C
:0A05A20000D2A700000000C2A7224B
:0205F600AC0750
:1005F800ECBD01052480FE800324C0FEAF06120571
:0606080038AF0302059269
:0A04D5007A00796D7BFF7D02E4FFE1
:0A04DF008F0C8D0D8B0E8A0F891013
:1004E900E4F511AB0EAA0FA9101205C56019AF0CDE
:1004F900050C0510E5107002050F14F91205C5FB6E
:07050900AD0D1205F680DCC8
:0105100022C8
:100554007F381205387F0112057C7F0C1205387F25
:100564000112057C7F061205387F0112053302054E
:010574007C0A
:1003370012060E7A017916120575750FFF751000F2
:100347007511267B007A007921120453E94A4B7014
:100357001A7F3212057C7F017E0012051112060EEC
:100367007BFF7A0179161205DE80CF7F027E0012AD
:1003770005117A0179351205757A0179431205DE7F
:100387007F64803712060E7BFF7A01791D1205778D
:10039700E52AB43006E52C6431600AE52AB4300F4B
:1003A700E52CB4350A12060E7F087E0002051112ED
:1003B700060E7F047E001205117F3212057C80C471
:10063700A2A4E433FB7A007F1912057C12060E7E12
:0306470000AF03FE
:01064A00228D
:1001C000E4F508F509F50A750B011205547BFF7A71
:1001D0000079297D01E4FF1204DF1205AC12060E3E
:1001E0007F641205337BFF7A0079367D011F12048C
:1001F000DF1203377BFF7A0079437D01E4FF1204AD
:10020000DF7FFA12057CE50B450A70030203111229
:1002100006378E088F09EF64014E7024F50A750BBE
:1002200001D2917F011205387BFF7A0079507D0160
:100230001F1204DF7A00795C1204D97FFA12057C60
:100240001206378E088F09EF4E70197F011205389C
:100250007BFF7A0079507D011F1204DF1204D57FE5
:10026000FA12057C1206378E088F09EF4E70977FC1
:10027000011205387BFF7A0079507D011F1204DFDF
:100280001204D5C2917BFF7A00797E7D01E4FF12D2
:1002900004DF1204D57F0A12057C7BFF7A00798E79
:1002A0001205DE7FFA12057C7FFA12057C7A00794E
:1002B000A01205DE7F141205337A0079A67D011F96
:1002C0001204DF1204D57BFF7A0079B61205DE7FB7
:1002D0001412057C7F047E001205117BFF7A0079E1
:1002E000C21205DE7F0A12057C7A0079DA1205DE79
:1002F0007F1A12064B7A0079F21205DE7FFA120598
:100300007C7FFA12057CE50B150B7002150A0202C0
:100310000620B202D2917F011205387BFF7A007964
:10032000F57D011F1204DF7BFF7A0179061204DBE1
:070330007FFA12057C80DA60
:1003D3000201C0E493A3F8E493A34003F68001F27F
:1003E30008DFF48029E493A3F85407240CC8C3332B
:1003F300C4540F4420C8834004F456800146F6DFFA
:10040300E4800B0102040810204080900653E47E30
:10041300019360BCA3FF543F30E509541FFEE493EE
:10042300A360010ECF54C025E060A840B8E493A3B5
:10043300FAE493A3F8E493A3C8C582C8CAC583CAE0
:10044300F0A3C8C582C8CAC583CADFE9DEE780BE98
:0106560000A3
:1005C500BB010689828A83E0225002E722BBFE0234
:0905D500E32289828A83E4932267
:100453008B0C8A0D890EAB0FAA10A9111205C5606A
:1004630063AB0CAA0DA90E1205C5605F850F12853B
:1004730010138511148B158A168917AB12AA13A9A9
:10048300141205C5FF6023AB15AA16A9171205C5DB
:100493006F7017042514F514E43513F5137401254F
:1004A30017F517E43516F51680D1AB12AA13A91464
:1004B3001205C57002800D7401250EF50EE4350D8D
:1004C300F50D809DAB0CAA0DA90E227B007A007955
:0204D300002205
:00000001FF
